{"abi":[{"type":"constructor","inputs":[{"name":"initialSigner","type":"address","internalType":"address"}],"stateMutability":"nonpayable"},{"type":"function","name":"owner","inputs":[],"outputs":[{"name":"","type":"address","internalType":"address"}],"stateMutability":"view"},{"type":"function","name":"pause","inputs":[],"outputs":[],"stateMutability":"nonpayable"},{"type":"function","name":"paused","inputs":[],"outputs":[{"name":"","type":"bool","internalType":"bool"}],"stateMutability":"view"},{"type":"function","name":"renounceOwnership","inputs":[],"outputs":[],"stateMutability":"nonpayable"},{"type":"function","name":"setSigner","inputs":[{"name":"newSigner","type":"address","internalType":"address"}],"outputs":[],"stateMutability":"nonpayable"},{"type":"function","name":"signer","inputs":[],"outputs":[{"name":"","type":"address","internalType":"address"}],"stateMutability":"view"},{"type":"function","name":"transfer","inputs":[{"name":"senders","type":"address[]","internalType":"address[]"},{"name":"tokens","type":"address[]","internalType":"address[]"},{"name":"amounts","type":"uint256[]","internalType":"uint256[]"},{"name":"totalGas","type":"uint256","internalType":"uint256"},{"name":"recipient","type":"address","internalType":"address"},{"name":"signature","type":"bytes","internalType":"bytes"}],"outputs":[],"stateMutability":"payable"},{"type":"function","name":"transferOwnership","inputs":[{"name":"newOwner","type":"address","internalType":"address"}],"outputs":[],"stateMutability":"nonpayable"},{"type":"function","name":"unpause","inputs":[],"outputs":[],"stateMutability":"nonpayable"},{"type":"event","name":"OwnershipTransferred","inputs":[{"name":"previousOwner","type":"address","indexed":true,"internalType":"address"},{"name":"newOwner","type":"address","indexed":true,"internalType":"address"}],"anonymous":false},{"type":"event","name":"Paused","inputs":[{"name":"account","type":"address","indexed":false,"internalType":"address"}],"anonymous":false},{"type":"event","name":"SignerUpdated","inputs":[{"name":"oldSigner","type":"address","indexed":false,"internalType":"address"},{"name":"newSigner","type":"address","indexed":false,"internalType":"address"}],"anonymous":false},{"type":"event","name":"Unpaused","inputs":[{"name":"account","type":"address","indexed":false,"internalType":"address"}],"anonymous":false},{"type":"error","name":"AddressEmptyCode","inputs":[{"name":"target","type":"address","internalType":"address"}]},{"type":"error","name":"AddressInsufficientBalance","inputs":[{"name":"account","type":"address","internalType":"address"}]},{"type":"error","name":"EnforcedPause","inputs":[]},{"type":"error","name":"ExpectedPause","inputs":[]},{"type":"error","name":"FailedInnerCall","inputs":[]},{"type":"error","name":"OwnableInvalidOwner","inputs":[{"name":"owner","type":"address","internalType":"address"}]},{"type":"error","name":"OwnableUnauthorizedAccount","inputs":[{"name":"account","type":"address","internalType":"address"}]},{"type":"error","name":"SafeERC20FailedOperation","inputs":[{"name":"token","type":"address","internalType":"address"}]}],"bytecode":{"object":"0x608060405234801561001057600080fd5b506040516110e73803806110e783398101604081905261002f91610138565b338061005657604051631e4fbdf760e01b8152600060048201526024015b60405180910390fd5b61005f816100e8565b506000805460ff60a01b191690556001600160a01b0381166100c35760405162461bcd60e51b815260206004820152601660248201527f496e76616c6964207369676e6572206164647265737300000000000000000000604482015260640161004d565b600180546001600160a01b0319166001600160a01b0392909216919091179055610168565b600080546001600160a01b038381166001600160a01b0319831681178455604051919092169283917f8be0079c531659141344cd1fd0a4f28419497f9722a3daafe3b4186f6b6457e09190a35050565b60006020828403121561014a57600080fd5b81516001600160a01b038116811461016157600080fd5b9392505050565b610f70806101776000396000f3fe6080604052600436106100865760003560e01c8063715018a611610059578063715018a6146101295780638456cb591461013e5780638da5cb5b14610153578063f2fde38b14610171578063fb03817a1461019157600080fd5b8063238ac9331461008b5780633f4ba83a146100c85780635c975abb146100df5780636c19e78314610109575b600080fd5b34801561009757600080fd5b506001546100ab906001600160a01b031681565b6040516001600160a01b0390911681526020015b60405180910390f35b3480156100d457600080fd5b506100dd6101a4565b005b3480156100eb57600080fd5b50600054600160a01b900460ff1660405190151581526020016100bf565b34801561011557600080fd5b506100dd610124366004610c27565b6101b6565b34801561013557600080fd5b506100dd610273565b34801561014a57600080fd5b506100dd610285565b34801561015f57600080fd5b506000546001600160a01b03166100ab565b34801561017d57600080fd5b506100dd61018c366004610c27565b610295565b6100dd61019f366004610d33565b6102d3565b6101ac610654565b6101b4610681565b565b6101be610654565b6001600160a01b0381166102125760405162461bcd60e51b8152602060048201526016602482015275496e76616c6964207369676e6572206164647265737360501b60448201526064015b60405180910390fd5b600180546001600160a01b038381166001600160a01b031983168117909355604080519190921680825260208201939093527f2d025324f0a785e8c12d0a0d91a9caa49df4ef20ff87e0df7213a1d4f3157beb910160405180910390a15050565b61027b610654565b6101b460006106d6565b61028d610654565b6101b4610726565b61029d610654565b6001600160a01b0381166102c757604051631e4fbdf760e01b815260006004820152602401610209565b6102d0816106d6565b50565b6102db610769565b85841480156102e957508786145b6103355760405162461bcd60e51b815260206004820152601b60248201527f417272617973206d75737420626520657175616c206c656e67746800000000006044820152606401610209565b60408051606084901b6bffffffffffffffffffffffff19166020808301919091528251601481840301815260349092019092528051910120600154610384906001600160a01b03168284610794565b6103c45760405162461bcd60e51b8152602060048201526011602482015270496e76616c6964207369676e617475726560781b6044820152606401610209565b8360005b888110156104b65760008a8a838181106103e4576103e4610e1d565b90506020020160208101906103f99190610c27565b6001600160a01b0316036104325787878281811061041957610419610e1d565b905060200201358261042b9190610e49565b91506104ae565b6104ae8c8c8381811061044757610447610e1d565b905060200201602081019061045c9190610c27565b868a8a8581811061046f5761046f610e1d565b905060200201358d8d8681811061048857610488610e1d565b905060200201602081019061049d9190610c27565b6001600160a01b03169291906107f8565b6001016103c8565b50348111156104fd5760405162461bcd60e51b8152602060048201526013602482015272139bdd08195b9bdd59da08115512081cd95b9d606a1b6044820152606401610209565b80156105a1576000846001600160a01b03168260405160006040518083038185875af1925050503d8060008114610550576040519150601f19603f3d011682016040523d82523d6000602084013e610555565b606091505b505090508061059f5760405162461bcd60e51b8152602060048201526016602482015275151c985b9cd9995c881bd9881155120819985a5b195960521b6044820152606401610209565b505b60006105ad8234610e5c565b9050801561064657604051600090339083908381818185875af1925050503d80600081146105f7576040519150601f19603f3d011682016040523d82523d6000602084013e6105fc565b606091505b50509050806106445760405162461bcd60e51b81526020600482015260146024820152731499599d5b99081bd9881155120819985a5b195960621b6044820152606401610209565b505b505050505050505050505050565b6000546001600160a01b031633146101b45760405163118cdaa760e01b8152336004820152602401610209565b610689610858565b6000805460ff60a01b191690557f5db9ee0a495bf2e6ff9c91a7834c1ba4fdd244a5e8aa4e537bd38aeae4b073aa335b6040516001600160a01b03909116815260200160405180910390a1565b600080546001600160a01b038381166001600160a01b0319831681178455604051919092169283917f8be0079c531659141344cd1fd0a4f28419497f9722a3daafe3b4186f6b6457e09190a35050565b61072e610769565b6000805460ff60a01b1916600160a01b1790557f62e78cea01bee320cd4e420270b5ea74000d11b0c9f74754ebdbfc544b05a2586106b93390565b600054600160a01b900460ff16156101b45760405163d93c066560e01b815260040160405180910390fd5b60008060006107a38585610882565b50909250905060008160038111156107bd576107bd610e6f565b1480156107db5750856001600160a01b0316826001600160a01b0316145b806107ec57506107ec8686866108cf565b925050505b9392505050565b604080516001600160a01b0385811660248301528416604482015260648082018490528251808303909101815260849091019091526020810180516001600160e01b03166323b872dd60e01b1790526108529085906109aa565b50505050565b600054600160a01b900460ff166101b457604051638dfc202b60e01b815260040160405180910390fd5b600080600083516041036108bc5760208401516040850151606086015160001a6108ae88828585610a12565b9550955095505050506108c8565b50508151600091506002905b9250925092565b6000806000856001600160a01b031685856040516024016108f1929190610ea9565b60408051601f198184030181529181526020820180516001600160e01b0316630b135d3f60e11b179052516109269190610ee3565b600060405180830381855afa9150503d8060008114610961576040519150601f19603f3d011682016040523d82523d6000602084013e610966565b606091505b509150915081801561097a57506020815110155b80156107ec57508051630b135d3f60e11b9061099f9083016020908101908401610eff565b149695505050505050565b60006109bf6001600160a01b03841683610ae1565b905080516000141580156109e45750808060200190518101906109e29190610f18565b155b15610a0d57604051635274afe760e01b81526001600160a01b0384166004820152602401610209565b505050565b600080807f7fffffffffffffffffffffffffffffff5d576e7357a4501ddfe92f46681b20a0841115610a4d5750600091506003905082610ad7565b604080516000808252602082018084528a905260ff891692820192909252606081018790526080810186905260019060a0016020604051602081039080840390855afa158015610aa1573d6000803e3d6000fd5b5050604051601f1901519150506001600160a01b038116610acd57506000925060019150829050610ad7565b9250600091508190505b9450945094915050565b6060610aef83836000610af8565b90505b92915050565b606081471015610b1d5760405163cd78605960e01b8152306004820152602401610209565b600080856001600160a01b03168486604051610b399190610ee3565b60006040518083038185875af1925050503d8060008114610b76576040519150601f19603f3d011682016040523d82523d6000602084013e610b7b565b606091505b50915091506107ec868383606082610b9b57610b9682610be2565b6107f1565b8151158015610bb257506001600160a01b0384163b155b15610bdb57604051639996b31560e01b81526001600160a01b0385166004820152602401610209565b50806107f1565b805115610bf25780518082602001fd5b604051630a12f52160e11b815260040160405180910390fd5b80356001600160a01b0381168114610c2257600080fd5b919050565b600060208284031215610c3957600080fd5b610aef82610c0b565b60008083601f840112610c5457600080fd5b50813567ffffffffffffffff811115610c6c57600080fd5b6020830191508360208260051b8501011115610c8757600080fd5b9250929050565b634e487b7160e01b600052604160045260246000fd5b600082601f830112610cb557600080fd5b813567ffffffffffffffff811115610ccf57610ccf610c8e565b604051601f8201601f19908116603f0116810167ffffffffffffffff81118282101715610cfe57610cfe610c8e565b604052818152838201602001851015610d1657600080fd5b816020850160208301376000918101602001919091529392505050565b600080600080600080600080600060c08a8c031215610d5157600080fd5b893567ffffffffffffffff811115610d6857600080fd5b610d748c828d01610c42565b909a5098505060208a013567ffffffffffffffff811115610d9457600080fd5b610da08c828d01610c42565b90985096505060408a013567ffffffffffffffff811115610dc057600080fd5b610dcc8c828d01610c42565b90965094505060608a01359250610de560808b01610c0b565b915060a08a013567ffffffffffffffff811115610e0157600080fd5b610e0d8c828d01610ca4565b9150509295985092959850929598565b634e487b7160e01b600052603260045260246000fd5b634e487b7160e01b600052601160045260246000fd5b80820180821115610af257610af2610e33565b81810381811115610af257610af2610e33565b634e487b7160e01b600052602160045260246000fd5b60005b83811015610ea0578181015183820152602001610e88565b50506000910152565b8281526040602082015260008251806040840152610ece816060850160208701610e85565b601f01601f1916919091016060019392505050565b60008251610ef5818460208701610e85565b9190910192915050565b600060208284031215610f1157600080fd5b5051919050565b600060208284031215610f2a57600080fd5b815180151581146107f157600080fdfea26469706673582212203a6414e2b05bb37a0e2e51ecebc60f881536b4320352d58a7cd9fa030e46c38464736f6c634300081a0033","linkReferences":{}},"methodIdentifiers":{"owner()":"8da5cb5b","pause()":"8456cb59","paused()":"5c975abb","renounceOwnership()":"715018a6","setSigner(address)":"6c19e783","signer()":"238ac933","transfer(address[],address[],uint256[],uint256,address,bytes)":"fb03817a","transferOwnership(address)":"f2fde38b","unpause()":"3f4ba83a"},"id":31}