{
  "abi": [
    {
      "inputs": [
        {
          "internalType": "address",
          "name": "target",
          "type": "address"
        }
      ],
      "name": "AddressEmptyCode",
      "type": "error"
    },
    {
      "inputs": [
        {
          "internalType": "address",
          "name": "account",
          "type": "address"
        }
      ],
      "name": "AddressInsufficientBalance",
      "type": "error"
    },
    {
      "inputs": [],
      "name": "FailedInnerCall",
      "type": "error"
    },
    {
      "inputs": [
        {
          "internalType": "address",
          "name": "token",
          "type": "address"
        }
      ],
      "name": "SafeERC20FailedOperation",
      "type": "error"
    },
    {
      "inputs": [
        {
          "internalType": "address[]",
          "name": "tokens",
          "type": "address[]"
        },
        {
          "internalType": "uint256[]",
          "name": "amounts",
          "type": "uint256[]"
        },
        {
          "internalType": "uint256",
          "name": "totalGas",
          "type": "uint256"
        },
        {
          "internalType": "address",
          "name": "recipient",
          "type": "address"
        }
      ],
      "name": "transfer",
      "outputs": [],
      "stateMutability": "payable",
      "type": "function"
    }
  ],
  "bytecode": {
    "object": "0x608060405234801561001057600080fd5b50610890806100206000396000f3fe60806040526004361061001e5760003560e01c806338ddddbf14610023575b600080fd5b6100366100313660046106c4565b610038565b005b825184511461008e5760405162461bcd60e51b815260206004820152601e60248201527f417272617973206d757374206265206f6620657175616c206c656e677468000060448201526064015b60405180910390fd5b8160005b855181101561023c5760006001600160a01b03168682815181106100b8576100b861079e565b60200260200101516001600160a01b0316036100fa578481815181106100e0576100e061079e565b6020026020010151826100f391906107ca565b9150610234565b600086828151811061010e5761010e61079e565b6020908102919091010151604051636eb1769f60e11b81523360048201523060248201529091506000906001600160a01b0383169063dd62ed3e90604401602060405180830381865afa158015610169573d6000803e3d6000fd5b505050506040513d601f19601f8201168201806040525081019061018d91906107dd565b90508683815181106101a1576101a161079e565b60200260200101518110156101f85760405162461bcd60e51b815260206004820152601a60248201527f4e6f7420656e6f75676820746f6b656e20616c6c6f77616e63650000000000006044820152606401610085565b610231338689868151811061020f5761020f61079e565b6020026020010151856001600160a01b03166103cb909392919063ffffffff16565b50505b600101610092565b50348111156102835760405162461bcd60e51b8152602060048201526013602482015272139bdd08195b9bdd59da08115512081cd95b9d606a1b6044820152606401610085565b6000826001600160a01b03168260405160006040518083038185875af1925050503d80600081146102d0576040519150601f19603f3d011682016040523d82523d6000602084013e6102d5565b606091505b505090508061031f5760405162461bcd60e51b8152602060048201526016602482015275151c985b9cd9995c881bd9881155120819985a5b195960521b6044820152606401610085565b600061032b83346107f6565b905080156103c25760405133908290600081818185875af1925050503d8060008114610373576040519150601f19603f3d011682016040523d82523d6000602084013e610378565b606091505b505080925050816103c25760405162461bcd60e51b81526020600482015260146024820152731499599d5b99081bd9881155120819985a5b195960621b6044820152606401610085565b50505050505050565b604080516001600160a01b0385811660248301528416604482015260648082018490528251808303909101815260849091019091526020810180516001600160e01b03166323b872dd60e01b17905261042590859061042b565b50505050565b60006104406001600160a01b03841683610493565b905080516000141580156104655750808060200190518101906104639190610809565b155b1561048e57604051635274afe760e01b81526001600160a01b0384166004820152602401610085565b505050565b60606104a1838360006104aa565b90505b92915050565b6060814710156104cf5760405163cd78605960e01b8152306004820152602401610085565b600080856001600160a01b031684866040516104eb919061082b565b60006040518083038185875af1925050503d8060008114610528576040519150601f19603f3d011682016040523d82523d6000602084013e61052d565b606091505b509150915061053d868383610549565b925050505b9392505050565b60608261055e57610559826105a5565b610542565b815115801561057557506001600160a01b0384163b155b1561059e57604051639996b31560e01b81526001600160a01b0385166004820152602401610085565b5080610542565b8051156105b55780518082602001fd5b604051630a12f52160e11b815260040160405180910390fd5b634e487b7160e01b600052604160045260246000fd5b604051601f8201601f1916810167ffffffffffffffff8111828210171561060d5761060d6105ce565b604052919050565b600067ffffffffffffffff82111561062f5761062f6105ce565b5060051b60200190565b80356001600160a01b038116811461065057600080fd5b919050565b600082601f83011261066657600080fd5b8135602061067b61067683610615565b6105e4565b8083825260208201915060208460051b87010193508684111561069d57600080fd5b602086015b848110156106b957803583529183019183016106a2565b509695505050505050565b600080600080608085870312156106da57600080fd5b843567ffffffffffffffff808211156106f257600080fd5b818701915087601f83011261070657600080fd5b8135602061071661067683610615565b82815260059290921b8401810191818101908b84111561073557600080fd5b948201945b8386101561075a5761074b86610639565b8252948201949082019061073a565b9850508801359250508082111561077057600080fd5b5061077d87828801610655565b9350506040850135915061079360608601610639565b905092959194509250565b634e487b7160e01b600052603260045260246000fd5b634e487b7160e01b600052601160045260246000fd5b808201808211156104a4576104a46107b4565b6000602082840312156107ef57600080fd5b5051919050565b818103818111156104a4576104a46107b4565b60006020828403121561081b57600080fd5b8151801515811461054257600080fd5b6000825160005b8181101561084c5760208186018101518583015201610832565b50600092019182525091905056fea2646970667358221220d6c832525c466c6b5a070cd1ab36e8f968a95b0c8040dd0e0ed652b18527a3d664736f6c63430008170033",
    "linkReferences": {}
  },
  "methodIdentifiers": {
    "transfer(address[],uint256[],uint256,address)": "38ddddbf"
  },
  "id": 27
}