{
  "abi": [
    {
      "inputs": [
        {
          "internalType": "address[]",
          "name": "tokens",
          "type": "address[]"
        },
        {
          "internalType": "uint256[]",
          "name": "amounts",
          "type": "uint256[]"
        },
        {
          "internalType": "uint256",
          "name": "totalGas",
          "type": "uint256"
        },
        {
          "internalType": "address",
          "name": "recipient",
          "type": "address"
        }
      ],
      "name": "transfer",
      "outputs": [],
      "stateMutability": "payable",
      "type": "function"
    }
  ],
  "bytecode": {
    "object": "0x608060405234801561001057600080fd5b50610722806100206000396000f3fe60806040526004361061001e5760003560e01c806338ddddbf14610023575b600080fd5b610036610031366004610578565b610038565b005b825184511461008e5760405162461bcd60e51b815260206004820152601e60248201527f417272617973206d757374206265206f6620657175616c206c656e677468000060448201526064015b60405180910390fd5b8160005b85518110156102f35760006001600160a01b03168682815181106100b8576100b8610652565b60200260200101516001600160a01b0316036100fa578481815181106100e0576100e0610652565b6020026020010151826100f3919061067e565b91506102eb565b600086828151811061010e5761010e610652565b6020908102919091010151604051636eb1769f60e11b81523360048201523060248201529091506000906001600160a01b0383169063dd62ed3e90604401602060405180830381865afa158015610169573d6000803e3d6000fd5b505050506040513d601f19601f8201168201806040525081019061018d9190610697565b90508683815181106101a1576101a1610652565b60200260200101518110156101f85760405162461bcd60e51b815260206004820152601a60248201527f4e6f7420656e6f75676820746f6b656e20616c6c6f77616e63650000000000006044820152606401610085565b6000826001600160a01b03166323b872dd33888b888151811061021d5761021d610652565b60209081029190910101516040516001600160e01b031960e086901b1681526001600160a01b03938416600482015292909116602483015260448201526064016020604051808303816000875af115801561027c573d6000803e3d6000fd5b505050506040513d601f19601f820116820180604052508101906102a091906106b0565b9050806102e75760405162461bcd60e51b8152602060048201526015602482015274151bdad95b881d1c985b9cd9995c8819985a5b1959605a1b6044820152606401610085565b5050505b600101610092565b503481111561033a5760405162461bcd60e51b8152602060048201526013602482015272139bdd08195b9bdd59da08115512081cd95b9d606a1b6044820152606401610085565b6000826001600160a01b03168260405160006040518083038185875af1925050503d8060008114610387576040519150601f19603f3d011682016040523d82523d6000602084013e61038c565b606091505b50509050806103d65760405162461bcd60e51b8152602060048201526016602482015275151c985b9cd9995c881bd9881155120819985a5b195960521b6044820152606401610085565b60006103e283346106d9565b905080156104795760405133908290600081818185875af1925050503d806000811461042a576040519150601f19603f3d011682016040523d82523d6000602084013e61042f565b606091505b505080925050816104795760405162461bcd60e51b81526020600482015260146024820152731499599d5b99081bd9881155120819985a5b195960621b6044820152606401610085565b50505050505050565b634e487b7160e01b600052604160045260246000fd5b604051601f8201601f1916810167ffffffffffffffff811182821017156104c1576104c1610482565b604052919050565b600067ffffffffffffffff8211156104e3576104e3610482565b5060051b60200190565b80356001600160a01b038116811461050457600080fd5b919050565b600082601f83011261051a57600080fd5b8135602061052f61052a836104c9565b610498565b8083825260208201915060208460051b87010193508684111561055157600080fd5b602086015b8481101561056d5780358352918301918301610556565b509695505050505050565b6000806000806080858703121561058e57600080fd5b843567ffffffffffffffff808211156105a657600080fd5b818701915087601f8301126105ba57600080fd5b813560206105ca61052a836104c9565b82815260059290921b8401810191818101908b8411156105e957600080fd5b948201945b8386101561060e576105ff866104ed565b825294820194908201906105ee565b9850508801359250508082111561062457600080fd5b5061063187828801610509565b93505060408501359150610647606086016104ed565b905092959194509250565b634e487b7160e01b600052603260045260246000fd5b634e487b7160e01b600052601160045260246000fd5b8082018082111561069157610691610668565b92915050565b6000602082840312156106a957600080fd5b5051919050565b6000602082840312156106c257600080fd5b815180151581146106d257600080fd5b9392505050565b818103818111156106915761069161066856fea2646970667358221220a88c2e5f1db7b17d83b74642b8230dfe4baf9edbfaca857079b1d280937e849764736f6c63430008170033",
    "linkReferences": {}
  },
  "methodIdentifiers": {
    "transfer(address[],uint256[],uint256,address)": "38ddddbf"
  },
  "id": 26
}