{
  "abi": [
    {
      "inputs": [
        {
          "internalType": "address",
          "name": "target",
          "type": "address"
        }
      ],
      "name": "AddressEmptyCode",
      "type": "error"
    },
    {
      "inputs": [
        {
          "internalType": "address",
          "name": "account",
          "type": "address"
        }
      ],
      "name": "AddressInsufficientBalance",
      "type": "error"
    },
    {
      "inputs": [],
      "name": "FailedInnerCall",
      "type": "error"
    },
    {
      "inputs": [
        {
          "internalType": "address",
          "name": "token",
          "type": "address"
        }
      ],
      "name": "SafeERC20FailedOperation",
      "type": "error"
    },
    {
      "inputs": [
        {
          "internalType": "address[]",
          "name": "senders",
          "type": "address[]"
        },
        {
          "internalType": "address[]",
          "name": "tokens",
          "type": "address[]"
        },
        {
          "internalType": "uint256[]",
          "name": "amounts",
          "type": "uint256[]"
        },
        {
          "internalType": "uint256",
          "name": "totalGas",
          "type": "uint256"
        },
        {
          "internalType": "address",
          "name": "recipient",
          "type": "address"
        }
      ],
      "name": "transfer",
      "outputs": [],
      "stateMutability": "payable",
      "type": "function"
    }
  ],
  "bytecode": {
    "object": "0x608060405234801561001057600080fd5b50610737806100206000396000f3fe60806040526004361061001e5760003560e01c80639085f50914610023575b600080fd5b610036610031366004610590565b610038565b005b848314801561004657508685145b6100975760405162461bcd60e51b815260206004820152601e60248201527f417272617973206d757374206265206f6620657175616c206c656e677468000060448201526064015b60405180910390fd5b8160005b868110156101895760008888838181106100b7576100b7610643565b90506020020160208101906100cc9190610659565b6001600160a01b031603610105578585828181106100ec576100ec610643565b90506020020135826100fe919061068a565b9150610181565b6101818a8a8381811061011a5761011a610643565b905060200201602081019061012f9190610659565b8488888581811061014257610142610643565b905060200201358b8b8681811061015b5761015b610643565b90506020020160208101906101709190610659565b6001600160a01b0316929190610325565b60010161009b565b50348111156101d05760405162461bcd60e51b8152602060048201526013602482015272139bdd08195b9bdd59da08115512081cd95b9d606a1b604482015260640161008e565b8015610274576000826001600160a01b03168260405160006040518083038185875af1925050503d8060008114610223576040519150601f19603f3d011682016040523d82523d6000602084013e610228565b606091505b50509050806102725760405162461bcd60e51b8152602060048201526016602482015275151c985b9cd9995c881bd9881155120819985a5b195960521b604482015260640161008e565b505b6000610280823461069d565b9050801561031957604051600090339083908381818185875af1925050503d80600081146102ca576040519150601f19603f3d011682016040523d82523d6000602084013e6102cf565b606091505b50509050806103175760405162461bcd60e51b81526020600482015260146024820152731499599d5b99081bd9881155120819985a5b195960621b604482015260640161008e565b505b50505050505050505050565b604080516001600160a01b0385811660248301528416604482015260648082018490528251808303909101815260849091019091526020810180516001600160e01b03166323b872dd60e01b17905261037f908590610385565b50505050565b600061039a6001600160a01b038416836103ed565b905080516000141580156103bf5750808060200190518101906103bd91906106b0565b155b156103e857604051635274afe760e01b81526001600160a01b038416600482015260240161008e565b505050565b60606103fb83836000610404565b90505b92915050565b6060814710156104295760405163cd78605960e01b815230600482015260240161008e565b600080856001600160a01b0316848660405161044591906106d2565b60006040518083038185875af1925050503d8060008114610482576040519150601f19603f3d011682016040523d82523d6000602084013e610487565b606091505b50915091506104978683836104a3565b925050505b9392505050565b6060826104b8576104b3826104ff565b61049c565b81511580156104cf57506001600160a01b0384163b155b156104f857604051639996b31560e01b81526001600160a01b038516600482015260240161008e565b508061049c565b80511561050f5780518082602001fd5b604051630a12f52160e11b815260040160405180910390fd5b60008083601f84011261053a57600080fd5b50813567ffffffffffffffff81111561055257600080fd5b6020830191508360208260051b850101111561056d57600080fd5b9250929050565b80356001600160a01b038116811461058b57600080fd5b919050565b60008060008060008060008060a0898b0312156105ac57600080fd5b883567ffffffffffffffff808211156105c457600080fd5b6105d08c838d01610528565b909a50985060208b01359150808211156105e957600080fd5b6105f58c838d01610528565b909850965060408b013591508082111561060e57600080fd5b5061061b8b828c01610528565b9095509350506060890135915061063460808a01610574565b90509295985092959890939650565b634e487b7160e01b600052603260045260246000fd5b60006020828403121561066b57600080fd5b6103fb82610574565b634e487b7160e01b600052601160045260246000fd5b808201808211156103fe576103fe610674565b818103818111156103fe576103fe610674565b6000602082840312156106c257600080fd5b8151801515811461049c57600080fd5b6000825160005b818110156106f357602081860181015185830152016106d9565b50600092019182525091905056fea2646970667358221220b84fa485b37098a5870ade842b47312624cfc6e5c981d27f99258650d65a24e064736f6c63430008170033",
    "linkReferences": {}
  },
  "methodIdentifiers": {
    "transfer(address[],address[],uint256[],uint256,address)": "9085f509"
  },
  "id": 29
}