{"abi":[{"type":"constructor","inputs":[],"stateMutability":"nonpayable"},{"type":"function","name":"owner","inputs":[],"outputs":[{"name":"","type":"address","internalType":"address"}],"stateMutability":"view"},{"type":"function","name":"pause","inputs":[],"outputs":[],"stateMutability":"nonpayable"},{"type":"function","name":"paused","inputs":[],"outputs":[{"name":"","type":"bool","internalType":"bool"}],"stateMutability":"view"},{"type":"function","name":"renounceOwnership","inputs":[],"outputs":[],"stateMutability":"nonpayable"},{"type":"function","name":"transfer","inputs":[{"name":"senders","type":"address[]","internalType":"address[]"},{"name":"tokens","type":"address[]","internalType":"address[]"},{"name":"amounts","type":"uint256[]","internalType":"uint256[]"},{"name":"totalGas","type":"uint256","internalType":"uint256"},{"name":"recipient","type":"address","internalType":"address"},{"name":"signature","type":"bytes","internalType":"bytes"}],"outputs":[],"stateMutability":"payable"},{"type":"function","name":"transferOwnership","inputs":[{"name":"newOwner","type":"address","internalType":"address"}],"outputs":[],"stateMutability":"nonpayable"},{"type":"function","name":"unpause","inputs":[],"outputs":[],"stateMutability":"nonpayable"},{"type":"event","name":"OwnershipTransferred","inputs":[{"name":"previousOwner","type":"address","indexed":true,"internalType":"address"},{"name":"newOwner","type":"address","indexed":true,"internalType":"address"}],"anonymous":false},{"type":"event","name":"Paused","inputs":[{"name":"account","type":"address","indexed":false,"internalType":"address"}],"anonymous":false},{"type":"event","name":"Unpaused","inputs":[{"name":"account","type":"address","indexed":false,"internalType":"address"}],"anonymous":false},{"type":"error","name":"AddressEmptyCode","inputs":[{"name":"target","type":"address","internalType":"address"}]},{"type":"error","name":"AddressInsufficientBalance","inputs":[{"name":"account","type":"address","internalType":"address"}]},{"type":"error","name":"EnforcedPause","inputs":[]},{"type":"error","name":"ExpectedPause","inputs":[]},{"type":"error","name":"FailedInnerCall","inputs":[]},{"type":"error","name":"OwnableInvalidOwner","inputs":[{"name":"owner","type":"address","internalType":"address"}]},{"type":"error","name":"OwnableUnauthorizedAccount","inputs":[{"name":"account","type":"address","internalType":"address"}]},{"type":"error","name":"SafeERC20FailedOperation","inputs":[{"name":"token","type":"address","internalType":"address"}]}],"bytecode":{"object":"0x608060405234801561001057600080fd5b50338061003757604051631e4fbdf760e01b81526000600482015260240160405180910390fd5b61004081610053565b506000805460ff60a01b191690556100a3565b600080546001600160a01b038381166001600160a01b0319831681178455604051919092169283917f8be0079c531659141344cd1fd0a4f28419497f9722a3daafe3b4186f6b6457e09190a35050565b610e49806100b26000396000f3fe6080604052600436106100705760003560e01c80638456cb591161004e5780638456cb59146100d05780638da5cb5b146100e5578063f2fde38b1461010d578063fb03817a1461012d57600080fd5b80633f4ba83a146100755780635c975abb1461008c578063715018a6146100bb575b600080fd5b34801561008157600080fd5b5061008a610140565b005b34801561009857600080fd5b50600054600160a01b900460ff1660405190151581526020015b60405180910390f35b3480156100c757600080fd5b5061008a610152565b3480156100dc57600080fd5b5061008a610164565b3480156100f157600080fd5b506000546040516001600160a01b0390911681526020016100b2565b34801561011957600080fd5b5061008a610128366004610b12565b610174565b61008a61013b366004610c1c565b6101b7565b61014861053f565b61015061056c565b565b61015a61053f565b61015060006105c1565b61016c61053f565b610150610611565b61017c61053f565b6001600160a01b0381166101ab57604051631e4fbdf760e01b8152600060048201526024015b60405180910390fd5b6101b4816105c1565b50565b6101bf610654565b85841480156101cd57508786145b6102195760405162461bcd60e51b815260206004820152601e60248201527f417272617973206d757374206265206f6620657175616c206c656e677468000060448201526064016101a2565b6040516bffffffffffffffffffffffff19606084901b16602082015260009060340160405160208183030381529060405280519060200120905061026f6102686000546001600160a01b031690565b828461067f565b6102af5760405162461bcd60e51b8152602060048201526011602482015270496e76616c6964207369676e617475726560781b60448201526064016101a2565b8360005b888110156103a15760008a8a838181106102cf576102cf610cf6565b90506020020160208101906102e49190610b12565b6001600160a01b03160361031d5787878281811061030457610304610cf6565b90506020020135826103169190610d22565b9150610399565b6103998c8c8381811061033257610332610cf6565b90506020020160208101906103479190610b12565b868a8a8581811061035a5761035a610cf6565b905060200201358d8d8681811061037357610373610cf6565b90506020020160208101906103889190610b12565b6001600160a01b03169291906106e3565b6001016102b3565b50348111156103e85760405162461bcd60e51b8152602060048201526013602482015272139bdd08195b9bdd59da08115512081cd95b9d606a1b60448201526064016101a2565b801561048c576000846001600160a01b03168260405160006040518083038185875af1925050503d806000811461043b576040519150601f19603f3d011682016040523d82523d6000602084013e610440565b606091505b505090508061048a5760405162461bcd60e51b8152602060048201526016602482015275151c985b9cd9995c881bd9881155120819985a5b195960521b60448201526064016101a2565b505b60006104988234610d35565b9050801561053157604051600090339083908381818185875af1925050503d80600081146104e2576040519150601f19603f3d011682016040523d82523d6000602084013e6104e7565b606091505b505090508061052f5760405162461bcd60e51b81526020600482015260146024820152731499599d5b99081bd9881155120819985a5b195960621b60448201526064016101a2565b505b505050505050505050505050565b6000546001600160a01b031633146101505760405163118cdaa760e01b81523360048201526024016101a2565b610574610743565b6000805460ff60a01b191690557f5db9ee0a495bf2e6ff9c91a7834c1ba4fdd244a5e8aa4e537bd38aeae4b073aa335b6040516001600160a01b03909116815260200160405180910390a1565b600080546001600160a01b038381166001600160a01b0319831681178455604051919092169283917f8be0079c531659141344cd1fd0a4f28419497f9722a3daafe3b4186f6b6457e09190a35050565b610619610654565b6000805460ff60a01b1916600160a01b1790557f62e78cea01bee320cd4e420270b5ea74000d11b0c9f74754ebdbfc544b05a2586105a43390565b600054600160a01b900460ff16156101505760405163d93c066560e01b815260040160405180910390fd5b600080600061068e858561076d565b50909250905060008160038111156106a8576106a8610d48565b1480156106c65750856001600160a01b0316826001600160a01b0316145b806106d757506106d78686866107ba565b925050505b9392505050565b604080516001600160a01b0385811660248301528416604482015260648082018490528251808303909101815260849091019091526020810180516001600160e01b03166323b872dd60e01b17905261073d908590610895565b50505050565b600054600160a01b900460ff1661015057604051638dfc202b60e01b815260040160405180910390fd5b600080600083516041036107a75760208401516040850151606086015160001a610799888285856108fd565b9550955095505050506107b3565b50508151600091506002905b9250925092565b6000806000856001600160a01b031685856040516024016107dc929190610d82565b60408051601f198184030181529181526020820180516001600160e01b0316630b135d3f60e11b179052516108119190610dbc565b600060405180830381855afa9150503d806000811461084c576040519150601f19603f3d011682016040523d82523d6000602084013e610851565b606091505b509150915081801561086557506020815110155b80156106d757508051630b135d3f60e11b9061088a9083016020908101908401610dd8565b149695505050505050565b60006108aa6001600160a01b038416836109cc565b905080516000141580156108cf5750808060200190518101906108cd9190610df1565b155b156108f857604051635274afe760e01b81526001600160a01b03841660048201526024016101a2565b505050565b600080807f7fffffffffffffffffffffffffffffff5d576e7357a4501ddfe92f46681b20a084111561093857506000915060039050826109c2565b604080516000808252602082018084528a905260ff891692820192909252606081018790526080810186905260019060a0016020604051602081039080840390855afa15801561098c573d6000803e3d6000fd5b5050604051601f1901519150506001600160a01b0381166109b8575060009250600191508290506109c2565b9250600091508190505b9450945094915050565b60606109da838360006109e3565b90505b92915050565b606081471015610a085760405163cd78605960e01b81523060048201526024016101a2565b600080856001600160a01b03168486604051610a249190610dbc565b60006040518083038185875af1925050503d8060008114610a61576040519150601f19603f3d011682016040523d82523d6000602084013e610a66565b606091505b50915091506106d7868383606082610a8657610a8182610acd565b6106dc565b8151158015610a9d57506001600160a01b0384163b155b15610ac657604051639996b31560e01b81526001600160a01b03851660048201526024016101a2565b50806106dc565b805115610add5780518082602001fd5b604051630a12f52160e11b815260040160405180910390fd5b80356001600160a01b0381168114610b0d57600080fd5b919050565b600060208284031215610b2457600080fd5b6109da82610af6565b60008083601f840112610b3f57600080fd5b50813567ffffffffffffffff811115610b5757600080fd5b6020830191508360208260051b8501011115610b7257600080fd5b9250929050565b634e487b7160e01b600052604160045260246000fd5b600082601f830112610ba057600080fd5b813567ffffffffffffffff80821115610bbb57610bbb610b79565b604051601f8301601f19908116603f01168101908282118183101715610be357610be3610b79565b81604052838152866020858801011115610bfc57600080fd5b836020870160208301376000602085830101528094505050505092915050565b600080600080600080600080600060c08a8c031215610c3a57600080fd5b893567ffffffffffffffff80821115610c5257600080fd5b610c5e8d838e01610b2d565b909b50995060208c0135915080821115610c7757600080fd5b610c838d838e01610b2d565b909950975060408c0135915080821115610c9c57600080fd5b610ca88d838e01610b2d565b909750955060608c01359450859150610cc360808d01610af6565b935060a08c0135915080821115610cd957600080fd5b50610ce68c828d01610b8f565b9150509295985092959850929598565b634e487b7160e01b600052603260045260246000fd5b634e487b7160e01b600052601160045260246000fd5b808201808211156109dd576109dd610d0c565b818103818111156109dd576109dd610d0c565b634e487b7160e01b600052602160045260246000fd5b60005b83811015610d79578181015183820152602001610d61565b50506000910152565b8281526040602082015260008251806040840152610da7816060850160208701610d5e565b601f01601f1916919091016060019392505050565b60008251610dce818460208701610d5e565b9190910192915050565b600060208284031215610dea57600080fd5b5051919050565b600060208284031215610e0357600080fd5b815180151581146106dc57600080fdfea2646970667358221220b361bc6316ba8b8f6aa442dc6f427793e6c6d396b4411960a26a6d337740389964736f6c63430008170033","linkReferences":{}},"methodIdentifiers":{"owner()":"8da5cb5b","pause()":"8456cb59","paused()":"5c975abb","renounceOwnership()":"715018a6","transfer(address[],address[],uint256[],uint256,address,bytes)":"fb03817a","transferOwnership(address)":"f2fde38b","unpause()":"3f4ba83a"},"id":31}