{
  "abi": [
    {
      "inputs": [
        {
          "internalType": "address",
          "name": "target",
          "type": "address"
        }
      ],
      "name": "AddressEmptyCode",
      "type": "error"
    },
    {
      "inputs": [
        {
          "internalType": "address",
          "name": "account",
          "type": "address"
        }
      ],
      "name": "AddressInsufficientBalance",
      "type": "error"
    },
    {
      "inputs": [],
      "name": "FailedInnerCall",
      "type": "error"
    },
    {
      "inputs": [
        {
          "internalType": "address",
          "name": "token",
          "type": "address"
        }
      ],
      "name": "SafeERC20FailedOperation",
      "type": "error"
    },
    {
      "inputs": [
        {
          "internalType": "address[]",
          "name": "senders",
          "type": "address[]"
        },
        {
          "internalType": "address[]",
          "name": "tokens",
          "type": "address[]"
        },
        {
          "internalType": "uint256[]",
          "name": "amounts",
          "type": "uint256[]"
        },
        {
          "internalType": "uint256",
          "name": "totalGas",
          "type": "uint256"
        },
        {
          "internalType": "address",
          "name": "recipient",
          "type": "address"
        }
      ],
      "name": "transfer",
      "outputs": [],
      "stateMutability": "payable",
      "type": "function"
    }
  ],
  "bytecode": {
    "object": "0x608060405234801561001057600080fd5b50610903806100206000396000f3fe60806040526004361061001e5760003560e01c80639085f50914610023575b600080fd5b610036610031366004610719565b610038565b005b8251845114801561004a575083518551145b61009b5760405162461bcd60e51b815260206004820152601e60248201527f417272617973206d757374206265206f6620657175616c206c656e677468000060448201526064015b60405180910390fd5b8160005b85518110156102895760006001600160a01b03168682815181106100c5576100c5610811565b60200260200101516001600160a01b031603610107578481815181106100ed576100ed610811565b602002602001015182610100919061083d565b9150610281565b600086828151811061011b5761011b610811565b602002602001015190506000816001600160a01b031663dd62ed3e8a858151811061014857610148610811565b60209081029190910101516040516001600160e01b031960e084901b1681526001600160a01b039091166004820152306024820152604401602060405180830381865afa15801561019d573d6000803e3d6000fd5b505050506040513d601f19601f820116820180604052508101906101c19190610850565b90508683815181106101d5576101d5610811565b602002602001015181101561022c5760405162461bcd60e51b815260206004820152601a60248201527f4e6f7420656e6f75676820746f6b656e20616c6c6f77616e63650000000000006044820152606401610092565b61027e89848151811061024157610241610811565b60200260200101518689868151811061025c5761025c610811565b6020026020010151856001600160a01b0316610419909392919063ffffffff16565b50505b60010161009f565b50348111156102d05760405162461bcd60e51b8152602060048201526013602482015272139bdd08195b9bdd59da08115512081cd95b9d606a1b6044820152606401610092565b6000826001600160a01b03168260405160006040518083038185875af1925050503d806000811461031d576040519150601f19603f3d011682016040523d82523d6000602084013e610322565b606091505b505090508061036c5760405162461bcd60e51b8152602060048201526016602482015275151c985b9cd9995c881bd9881155120819985a5b195960521b6044820152606401610092565b60006103788334610869565b9050801561040f5760405133908290600081818185875af1925050503d80600081146103c0576040519150601f19603f3d011682016040523d82523d6000602084013e6103c5565b606091505b5050809250508161040f5760405162461bcd60e51b81526020600482015260146024820152731499599d5b99081bd9881155120819985a5b195960621b6044820152606401610092565b5050505050505050565b604080516001600160a01b0385811660248301528416604482015260648082018490528251808303909101815260849091019091526020810180516001600160e01b03166323b872dd60e01b179052610473908590610479565b50505050565b600061048e6001600160a01b038416836104e1565b905080516000141580156104b35750808060200190518101906104b1919061087c565b155b156104dc57604051635274afe760e01b81526001600160a01b0384166004820152602401610092565b505050565b60606104ef838360006104f8565b90505b92915050565b60608147101561051d5760405163cd78605960e01b8152306004820152602401610092565b600080856001600160a01b03168486604051610539919061089e565b60006040518083038185875af1925050503d8060008114610576576040519150601f19603f3d011682016040523d82523d6000602084013e61057b565b606091505b509150915061058b868383610597565b925050505b9392505050565b6060826105ac576105a7826105f3565b610590565b81511580156105c357506001600160a01b0384163b155b156105ec57604051639996b31560e01b81526001600160a01b0385166004820152602401610092565b5080610590565b8051156106035780518082602001fd5b604051630a12f52160e11b815260040160405180910390fd5b634e487b7160e01b600052604160045260246000fd5b604051601f8201601f1916810167ffffffffffffffff8111828210171561065b5761065b61061c565b604052919050565b600067ffffffffffffffff82111561067d5761067d61061c565b5060051b60200190565b80356001600160a01b038116811461069e57600080fd5b919050565b600082601f8301126106b457600080fd5b813560206106c96106c483610663565b610632565b8083825260208201915060208460051b8701019350868411156106eb57600080fd5b602086015b8481101561070e5761070181610687565b83529183019183016106f0565b509695505050505050565b600080600080600060a0868803121561073157600080fd5b853567ffffffffffffffff8082111561074957600080fd5b61075589838a016106a3565b965060209150818801358181111561076c57600080fd5b6107788a828b016106a3565b96505060408801358181111561078d57600080fd5b88019050601f810189136107a057600080fd5b80356107ae6106c482610663565b81815260059190911b8201830190838101908b8311156107cd57600080fd5b928401925b828410156107eb578335825292840192908401906107d2565b965050505060608701359250610805905060808701610687565b90509295509295909350565b634e487b7160e01b600052603260045260246000fd5b634e487b7160e01b600052601160045260246000fd5b808201808211156104f2576104f2610827565b60006020828403121561086257600080fd5b5051919050565b818103818111156104f2576104f2610827565b60006020828403121561088e57600080fd5b8151801515811461059057600080fd5b6000825160005b818110156108bf57602081860181015185830152016108a5565b50600092019182525091905056fea2646970667358221220836d558bb33e87404236ccef7ece8961c5f01f272297cfe1166e61d5f771e68264736f6c63430008170033",
    "linkReferences": {}
  },
  "methodIdentifiers": {
    "transfer(address[],address[],uint256[],uint256,address)": "9085f509"
  },
  "id": 27
}